{
  "_format": "hh-sol-artifact-1",
  "contractName": "DisasterRelifCampaign",
  "sourceName": "contracts/DisasterRelifCampaign.sol",
  "abi": [
    {
      "anonymous": false,
      "inputs": [
        {
          "indexed": false,
          "internalType": "uint256",
          "name": "campainId",
          "type": "uint256"
        },
        {
          "indexed": false,
          "internalType": "address",
          "name": "creator",
          "type": "address"
        },
        {
          "indexed": false,
          "internalType": "string",
          "name": "title",
          "type": "string"
        }
      ],
      "name": "CampaignCreated",
      "type": "event"
    },
    {
      "anonymous": false,
      "inputs": [
        {
          "indexed": false,
          "internalType": "uint256",
          "name": "campaignId",
          "type": "uint256"
        },
        {
          "indexed": false,
          "internalType": "address",
          "name": "donor",
          "type": "address"
        },
        {
          "indexed": false,
          "internalType": "uint256",
          "name": "amount",
          "type": "uint256"
        }
      ],
      "name": "DonationReceived",
      "type": "event"
    },
    {
      "anonymous": false,
      "inputs": [
        {
          "indexed": false,
          "internalType": "uint256",
          "name": "campaignId",
          "type": "uint256"
        },
        {
          "indexed": false,
          "internalType": "uint256",
          "name": "amount",
          "type": "uint256"
        }
      ],
      "name": "FundsReleased",
      "type": "event"
    },
    {
      "anonymous": false,
      "inputs": [
        {
          "indexed": false,
          "internalType": "uint256",
          "name": "campaignId",
          "type": "uint256"
        },
        {
          "indexed": false,
          "internalType": "uint256",
          "name": "amount",
          "type": "uint256"
        },
        {
          "indexed": false,
          "internalType": "string",
          "name": "reason",
          "type": "string"
        }
      ],
      "name": "WithdrawalRequested",
      "type": "event"
    },
    {
      "inputs": [],
      "name": "MAX_WITHDRAWAL_PERCENT",
      "outputs": [
        {
          "internalType": "uint256",
          "name": "",
          "type": "uint256"
        }
      ],
      "stateMutability": "view",
      "type": "function"
    },
    {
      "inputs": [],
      "name": "RELEASE_DELAY",
      "outputs": [
        {
          "internalType": "uint256",
          "name": "",
          "type": "uint256"
        }
      ],
      "stateMutability": "view",
      "type": "function"
    },
    {
      "inputs": [],
      "name": "campaignCount",
      "outputs": [
        {
          "internalType": "uint256",
          "name": "",
          "type": "uint256"
        }
      ],
      "stateMutability": "view",
      "type": "function"
    },
    {
      "inputs": [
        {
          "internalType": "uint256",
          "name": "",
          "type": "uint256"
        }
      ],
      "name": "campaigns",
      "outputs": [
        {
          "internalType": "address",
          "name": "creator",
          "type": "address"
        },
        {
          "internalType": "string",
          "name": "title",
          "type": "string"
        },
        {
          "internalType": "string",
          "name": "description",
          "type": "string"
        },
        {
          "internalType": "uint256",
          "name": "targetAmount",
          "type": "uint256"
        },
        {
          "internalType": "uint256",
          "name": "raisedAmount",
          "type": "uint256"
        },
        {
          "internalType": "uint256",
          "name": "releasedAmount",
          "type": "uint256"
        },
        {
          "internalType": "bool",
          "name": "isActive",
          "type": "bool"
        },
        {
          "internalType": "uint256",
          "name": "lastReleaseTime",
          "type": "uint256"
        }
      ],
      "stateMutability": "view",
      "type": "function"
    },
    {
      "inputs": [
        {
          "internalType": "string",
          "name": "_title",
          "type": "string"
        },
        {
          "internalType": "string",
          "name": "_description",
          "type": "string"
        },
        {
          "internalType": "uint256",
          "name": "_targetAmount",
          "type": "uint256"
        }
      ],
      "name": "createCampaign",
      "outputs": [],
      "stateMutability": "nonpayable",
      "type": "function"
    },
    {
      "inputs": [
        {
          "internalType": "uint256",
          "name": "_campaignId",
          "type": "uint256"
        }
      ],
      "name": "donate",
      "outputs": [],
      "stateMutability": "payable",
      "type": "function"
    },
    {
      "inputs": [
        {
          "internalType": "uint256",
          "name": "_campaignId",
          "type": "uint256"
        }
      ],
      "name": "getCampaign",
      "outputs": [
        {
          "internalType": "address",
          "name": "creator",
          "type": "address"
        },
        {
          "internalType": "string",
          "name": "title",
          "type": "string"
        },
        {
          "internalType": "string",
          "name": "description",
          "type": "string"
        },
        {
          "internalType": "uint256",
          "name": "targetAmount",
          "type": "uint256"
        },
        {
          "internalType": "uint256",
          "name": "raisedAmount",
          "type": "uint256"
        },
        {
          "internalType": "uint256",
          "name": "relesasedAmount",
          "type": "uint256"
        },
        {
          "internalType": "bool",
          "name": "isActive",
          "type": "bool"
        }
      ],
      "stateMutability": "view",
      "type": "function"
    },
    {
      "inputs": [
        {
          "internalType": "uint256",
          "name": "_campaignId",
          "type": "uint256"
        },
        {
          "internalType": "uint256",
          "name": "_requestIndex",
          "type": "uint256"
        }
      ],
      "name": "releaseWithdrawal",
      "outputs": [],
      "stateMutability": "nonpayable",
      "type": "function"
    },
    {
      "inputs": [
        {
          "internalType": "uint256",
          "name": "_campaignId",
          "type": "uint256"
        },
        {
          "internalType": "uint256",
          "name": "_amount",
          "type": "uint256"
        },
        {
          "internalType": "string",
          "name": "_reason",
          "type": "string"
        }
      ],
      "name": "requestWithdrawal",
      "outputs": [],
      "stateMutability": "nonpayable",
      "type": "function"
    },
    {
      "inputs": [
        {
          "internalType": "uint256",
          "name": "",
          "type": "uint256"
        },
        {
          "internalType": "uint256",
          "name": "",
          "type": "uint256"
        }
      ],
      "name": "withdrawalRequests",
      "outputs": [
        {
          "internalType": "uint256",
          "name": "amount",
          "type": "uint256"
        },
        {
          "internalType": "string",
          "name": "reason",
          "type": "string"
        },
        {
          "internalType": "uint256",
          "name": "requestTime",
          "type": "uint256"
        },
        {
          "internalType": "bool",
          "name": "approved",
          "type": "bool"
        }
      ],
      "stateMutability": "view",
      "type": "function"
    }
  ],
  "bytecode": "0x6080604052348015600f57600080fd5b50611c7c8061001f6000396000f3fe6080604052600436106100915760003560e01c80637274e30d116100595780637274e30d1461019a578063a302e232146101c5578063da903d13146101f0578063f14faf6f14610230578063ffa56a571461024c57610091565b8063141961bc1461009657806320e7f66c146100da578063399c06dd146101035780634d31803a1461012c5780635598f8cc14610157575b600080fd5b3480156100a257600080fd5b506100bd60048036038101906100b89190610ebb565b610275565b6040516100d1989796959493929190610fe3565b60405180910390f35b3480156100e657600080fd5b5061010160048036038101906100fc91906111a4565b6103fa565b005b34801561010f57600080fd5b5061012a60048036038101906101259190611213565b610664565b005b34801561013857600080fd5b506101416108e1565b60405161014e9190611253565b60405180910390f35b34801561016357600080fd5b5061017e60048036038101906101799190610ebb565b6108e6565b604051610191979695949392919061126e565b60405180910390f35b3480156101a657600080fd5b506101af610b0d565b6040516101bc9190611253565b60405180910390f35b3480156101d157600080fd5b506101da610b13565b6040516101e79190611253565b60405180910390f35b3480156101fc57600080fd5b5061021760048036038101906102129190611213565b610b1a565b60405161022794939291906112eb565b60405180910390f35b61024a60048036038101906102459190610ebb565b610bfc565b005b34801561025857600080fd5b50610273600480360381019061026e9190611337565b610cea565b005b60006020528060005260406000206000915090508060000160009054906101000a900473ffffffffffffffffffffffffffffffffffffffff16908060010180546102be906113f1565b80601f01602080910402602001604051908101604052809291908181526020018280546102ea906113f1565b80156103375780601f1061030c57610100808354040283529160200191610337565b820191906000526020600020905b81548152906001019060200180831161031a57829003601f168201915b50505050509080600201805461034c906113f1565b80601f0160208091040260200160405190810160405280929190818152602001828054610378906113f1565b80156103c55780601f1061039a576101008083540402835291602001916103c5565b820191906000526020600020905b8154815290600101906020018083116103a857829003601f168201915b5050505050908060030154908060040154908060050154908060060160009054906101000a900460ff16908060070154905088565b600080600085815260200190815260200160002090508060000160009054906101000a900473ffffffffffffffffffffffffffffffffffffffff1673ffffffffffffffffffffffffffffffffffffffff163373ffffffffffffffffffffffffffffffffffffffff16146104a2576040517f08c379a00000000000000000000000000000000000000000000000000000000081526004016104999061146e565b60405180910390fd5b6203f48081600701546104b591906114bd565b4210156104f7576040517f08c379a00000000000000000000000000000000000000000000000000000000081526004016104ee9061153d565b60405180910390fd5b60008160050154826004015461050d919061155d565b905060006064601e836105209190611591565b61052a9190611602565b90508085111561056f576040517f08c379a0000000000000000000000000000000000000000000000000000000008152600401610566906116a5565b60405180910390fd5b60006040518060800160405280878152602001868152602001428152602001600015158152509050600160008881526020019081526020016000208190806001815401808255809150506001900390600052602060002090600402016000909190919091506000820151816000015560208201518160010190816105f39190611871565b506040820151816002015560608201518160030160006101000a81548160ff02191690831515021790555050507f2f45afb2da9321304d60c0fb98ede450b7d6660081c8d4514373deb7acd06aa287878760405161065393929190611943565b60405180910390a150505050505050565b6000806000848152602001908152602001600020905060006001600085815260200190815260200160002083815481106106a1576106a0611981565b5b906000526020600020906004020190508160000160009054906101000a900473ffffffffffffffffffffffffffffffffffffffff1673ffffffffffffffffffffffffffffffffffffffff163373ffffffffffffffffffffffffffffffffffffffff1614610743576040517f08c379a000000000000000000000000000000000000000000000000000000000815260040161073a906119fc565b60405180910390fd5b8060030160009054906101000a900460ff1615610795576040517f08c379a000000000000000000000000000000000000000000000000000000000815260040161078c90611a68565b60405180910390fd5b6201518081600201546107a891906114bd565b4210156107ea576040517f08c379a00000000000000000000000000000000000000000000000000000000081526004016107e190611ad4565b60405180910390fd5b60018160030160006101000a81548160ff021916908315150217905550806000015482600501600082825461081f91906114bd565b925050819055504282600701819055508160000160009054906101000a900473ffffffffffffffffffffffffffffffffffffffff1673ffffffffffffffffffffffffffffffffffffffff166108fc82600001549081150290604051600060405180830381858888f1935050505015801561089d573d6000803e3d6000fd5b507f80230996023d69b50793fa73f1919127c9d8e741d3989743c479169f22e7a2888482600001546040516108d3929190611af4565b60405180910390a150505050565b601e81565b600060608060008060008060008060008a8152602001908152602001600020604051806101000160405290816000820160009054906101000a900473ffffffffffffffffffffffffffffffffffffffff1673ffffffffffffffffffffffffffffffffffffffff1673ffffffffffffffffffffffffffffffffffffffff168152602001600182018054610977906113f1565b80601f01602080910402602001604051908101604052809291908181526020018280546109a3906113f1565b80156109f05780601f106109c5576101008083540402835291602001916109f0565b820191906000526020600020905b8154815290600101906020018083116109d357829003601f168201915b50505050508152602001600282018054610a09906113f1565b80601f0160208091040260200160405190810160405280929190818152602001828054610a35906113f1565b8015610a825780601f10610a5757610100808354040283529160200191610a82565b820191906000526020600020905b815481529060010190602001808311610a6557829003601f168201915b505050505081526020016003820154815260200160048201548152602001600582015481526020016006820160009054906101000a900460ff161515151581526020016007820154815250509050806000015181602001518260400151836060015184608001518560a001518660c00151975097509750975097509750975050919395979092949650565b60025481565b6203f48081565b60016020528160005260406000208181548110610b3657600080fd5b906000526020600020906004020160009150915050806000015490806001018054610b60906113f1565b80601f0160208091040260200160405190810160405280929190818152602001828054610b8c906113f1565b8015610bd95780601f10610bae57610100808354040283529160200191610bd9565b820191906000526020600020905b815481529060010190602001808311610bbc57829003601f168201915b5050505050908060020154908060030160009054906101000a900460ff16905084565b600080600083815260200190815260200160002090508060060160009054906101000a900460ff16610c63576040517f08c379a0000000000000000000000000000000000000000000000000000000008152600401610c5a90611b69565b60405180910390fd5b34816004016000828254610c7791906114bd565b925050819055507f0b5b4c52969ff7329ecf7ee536409fda87812b15a8622bc6e8cdeab3aee14a26823334604051610cb193929190611b89565b60405180910390a18060030154816004015410610ce65760008160060160006101000a81548160ff0219169083151502179055505b5050565b60006040518061010001604052803373ffffffffffffffffffffffffffffffffffffffff168152602001858152602001848152602001838152602001600081526020016000815260200160011515815260200142815250905080600080600254815260200190815260200160002060008201518160000160006101000a81548173ffffffffffffffffffffffffffffffffffffffff021916908373ffffffffffffffffffffffffffffffffffffffff1602179055506020820151816001019081610db49190611871565b506040820151816002019081610dca9190611871565b50606082015181600301556080820151816004015560a0820151816005015560c08201518160060160006101000a81548160ff02191690831515021790555060e082015181600701559050507fc04c663886cae794dc52158f70fe6c8ee3b0140d4f48647282f9b693ff688a656002543386604051610e4b93929190611bc0565b60405180910390a160026000815480929190610e6690611bfe565b919050555050505050565b6000604051905090565b600080fd5b600080fd5b6000819050919050565b610e9881610e85565b8114610ea357600080fd5b50565b600081359050610eb581610e8f565b92915050565b600060208284031215610ed157610ed0610e7b565b5b6000610edf84828501610ea6565b91505092915050565b600073ffffffffffffffffffffffffffffffffffffffff82169050919050565b6000610f1382610ee8565b9050919050565b610f2381610f08565b82525050565b600081519050919050565b600082825260208201905092915050565b60005b83811015610f63578082015181840152602081019050610f48565b60008484015250505050565b6000601f19601f8301169050919050565b6000610f8b82610f29565b610f958185610f34565b9350610fa5818560208601610f45565b610fae81610f6f565b840191505092915050565b610fc281610e85565b82525050565b60008115159050919050565b610fdd81610fc8565b82525050565b600061010082019050610ff9600083018b610f1a565b818103602083015261100b818a610f80565b9050818103604083015261101f8189610f80565b905061102e6060830188610fb9565b61103b6080830187610fb9565b61104860a0830186610fb9565b61105560c0830185610fd4565b61106260e0830184610fb9565b9998505050505050505050565b600080fd5b600080fd5b7f4e487b7100000000000000000000000000000000000000000000000000000000600052604160045260246000fd5b6110b182610f6f565b810181811067ffffffffffffffff821117156110d0576110cf611079565b5b80604052505050565b60006110e3610e71565b90506110ef82826110a8565b919050565b600067ffffffffffffffff82111561110f5761110e611079565b5b61111882610f6f565b9050602081019050919050565b82818337600083830152505050565b6000611147611142846110f4565b6110d9565b90508281526020810184848401111561116357611162611074565b5b61116e848285611125565b509392505050565b600082601f83011261118b5761118a61106f565b5b813561119b848260208601611134565b91505092915050565b6000806000606084860312156111bd576111bc610e7b565b5b60006111cb86828701610ea6565b93505060206111dc86828701610ea6565b925050604084013567ffffffffffffffff8111156111fd576111fc610e80565b5b61120986828701611176565b9150509250925092565b6000806040838503121561122a57611229610e7b565b5b600061123885828601610ea6565b925050602061124985828601610ea6565b9150509250929050565b60006020820190506112686000830184610fb9565b92915050565b600060e082019050611283600083018a610f1a565b81810360208301526112958189610f80565b905081810360408301526112a98188610f80565b90506112b86060830187610fb9565b6112c56080830186610fb9565b6112d260a0830185610fb9565b6112df60c0830184610fd4565b98975050505050505050565b60006080820190506113006000830187610fb9565b81810360208301526113128186610f80565b90506113216040830185610fb9565b61132e6060830184610fd4565b95945050505050565b6000806000606084860312156113505761134f610e7b565b5b600084013567ffffffffffffffff81111561136e5761136d610e80565b5b61137a86828701611176565b935050602084013567ffffffffffffffff81111561139b5761139a610e80565b5b6113a786828701611176565b92505060406113b886828701610ea6565b9150509250925092565b7f4e487b7100000000000000000000000000000000000000000000000000000000600052602260045260246000fd5b6000600282049050600182168061140957607f821691505b60208210810361141c5761141b6113c2565b5b50919050565b7f6f6e6c792063726561746f722063616e20726571756573742000000000000000600082015250565b6000611458601983610f34565b915061146382611422565b602082019050919050565b600060208201905081810360008301526114878161144b565b9050919050565b7f4e487b7100000000000000000000000000000000000000000000000000000000600052601160045260246000fd5b60006114c882610e85565b91506114d383610e85565b92508282019050808211156114eb576114ea61148e565b5b92915050565b7f546f6f20736f6f6e20666f72206e657874207769746864726177616c00000000600082015250565b6000611527601c83610f34565b9150611532826114f1565b602082019050919050565b600060208201905081810360008301526115568161151a565b9050919050565b600061156882610e85565b915061157383610e85565b925082820390508181111561158b5761158a61148e565b5b92915050565b600061159c82610e85565b91506115a783610e85565b92508282026115b581610e85565b915082820484148315176115cc576115cb61148e565b5b5092915050565b7f4e487b7100000000000000000000000000000000000000000000000000000000600052601260045260246000fd5b600061160d82610e85565b915061161883610e85565b925082611628576116276115d3565b5b828204905092915050565b7f416d6f756e742065786365656473206d6178696d756d2077697468647261776160008201527f6c206c696d697400000000000000000000000000000000000000000000000000602082015250565b600061168f602783610f34565b915061169a82611633565b604082019050919050565b600060208201905081810360008301526116be81611682565b9050919050565b60008190508160005260206000209050919050565b60006020601f8301049050919050565b600082821b905092915050565b6000600883026117277fffffffffffffffffffffffffffffffffffffffffffffffffffffffffffffffff826116ea565b61173186836116ea565b95508019841693508086168417925050509392505050565b6000819050919050565b600061176e61176961176484610e85565b611749565b610e85565b9050919050565b6000819050919050565b61178883611753565b61179c61179482611775565b8484546116f7565b825550505050565b600090565b6117b16117a4565b6117bc81848461177f565b505050565b5b818110156117e0576117d56000826117a9565b6001810190506117c2565b5050565b601f821115611825576117f6816116c5565b6117ff846116da565b8101602085101561180e578190505b61182261181a856116da565b8301826117c1565b50505b505050565b600082821c905092915050565b60006118486000198460080261182a565b1980831691505092915050565b60006118618383611837565b9150826002028217905092915050565b61187a82610f29565b67ffffffffffffffff81111561189357611892611079565b5b61189d82546113f1565b6118a88282856117e4565b600060209050601f8311600181146118db57600084156118c9578287015190505b6118d38582611855565b86555061193b565b601f1984166118e9866116c5565b60005b82811015611911578489015182556001820191506020850194506020810190506118ec565b8683101561192e578489015161192a601f891682611837565b8355505b6001600288020188555050505b505050505050565b60006060820190506119586000830186610fb9565b6119656020830185610fb9565b81810360408301526119778184610f80565b9050949350505050565b7f4e487b7100000000000000000000000000000000000000000000000000000000600052603260045260246000fd5b7f6f6e6c792063726561746f722063616e2072656c656173650000000000000000600082015250565b60006119e6601883610f34565b91506119f1826119b0565b602082019050919050565b60006020820190508181036000830152611a15816119d9565b9050919050565b7f416c726561647920617070726f76656400000000000000000000000000000000600082015250565b6000611a52601083610f34565b9150611a5d82611a1c565b602082019050919050565b60006020820190508181036000830152611a8181611a45565b9050919050565b7f3234682064656c6179206e6f74206d6574000000000000000000000000000000600082015250565b6000611abe601183610f34565b9150611ac982611a88565b602082019050919050565b60006020820190508181036000830152611aed81611ab1565b9050919050565b6000604082019050611b096000830185610fb9565b611b166020830184610fb9565b9392505050565b7f43616d706169676e206973206e6f742061637469766500000000000000000000600082015250565b6000611b53601683610f34565b9150611b5e82611b1d565b602082019050919050565b60006020820190508181036000830152611b8281611b46565b9050919050565b6000606082019050611b9e6000830186610fb9565b611bab6020830185610f1a565b611bb86040830184610fb9565b949350505050565b6000606082019050611bd56000830186610fb9565b611be26020830185610f1a565b8181036040830152611bf48184610f80565b9050949350505050565b6000611c0982610e85565b91507fffffffffffffffffffffffffffffffffffffffffffffffffffffffffffffffff8203611c3b57611c3a61148e565b5b60018201905091905056fea2646970667358221220ffbc583b6cad42177168903247a314833ffa0e8a850e6c2deb71591a1fbd287464736f6c634300081c0033",
  "linkReferences": {},
  "deployedLinkReferences": {}
}